{
  "contractName": "MyNFT",
  "abi": [
    {
      "inputs": [],
      "stateMutability": "nonpayable",
      "type": "constructor"
    },
    {
      "anonymous": false,
      "inputs": [
        {
          "indexed": true,
          "internalType": "uint64",
          "name": "id",
          "type": "uint64"
        },
        {
          "indexed": false,
          "internalType": "uint256",
          "name": "time",
          "type": "uint256"
        }
      ],
      "name": "AuctionExtended",
      "type": "event"
    },
    {
      "anonymous": false,
      "inputs": [
        {
          "indexed": true,
          "internalType": "uint64",
          "name": "id",
          "type": "uint64"
        },
        {
          "indexed": true,
          "internalType": "address",
          "name": "nftRecipient",
          "type": "address"
        },
        {
          "indexed": false,
          "internalType": "uint256",
          "name": "price",
          "type": "uint256"
        }
      ],
      "name": "AuctionFinished",
      "type": "event"
    },
    {
      "anonymous": false,
      "inputs": [
        {
          "indexed": true,
          "internalType": "uint64",
          "name": "id",
          "type": "uint64"
        },
        {
          "indexed": true,
          "internalType": "address",
          "name": "bidder",
          "type": "address"
        },
        {
          "indexed": false,
          "internalType": "uint256",
          "name": "price",
          "type": "uint256"
        }
      ],
      "name": "Bid",
      "type": "event"
    },
    {
      "anonymous": false,
      "inputs": [
        {
          "indexed": true,
          "internalType": "uint64",
          "name": "id",
          "type": "uint64"
        },
        {
          "indexed": true,
          "internalType": "address",
          "name": "creator",
          "type": "address"
        },
        {
          "indexed": false,
          "internalType": "address",
          "name": "currency",
          "type": "address"
        },
        {
          "indexed": true,
          "internalType": "address",
          "name": "platform",
          "type": "address"
        },
        {
          "indexed": false,
          "internalType": "uint256",
          "name": "token",
          "type": "uint256"
        },
        {
          "indexed": false,
          "internalType": "uint256",
          "name": "price",
          "type": "uint256"
        },
        {
          "indexed": false,
          "internalType": "uint8",
          "name": "timeInDays",
          "type": "uint8"
        },
        {
          "indexed": false,
          "internalType": "address",
          "name": "referrer",
          "type": "address"
        }
      ],
      "name": "ListingCreated",
      "type": "event"
    },
    {
      "anonymous": false,
      "inputs": [
        {
          "indexed": true,
          "internalType": "address",
          "name": "previousOwner",
          "type": "address"
        },
        {
          "indexed": true,
          "internalType": "address",
          "name": "newOwner",
          "type": "address"
        }
      ],
      "name": "OwnershipTransferred",
      "type": "event"
    },
    {
      "stateMutability": "payable",
      "type": "fallback",
      "payable": true
    },
    {
      "inputs": [],
      "name": "owner",
      "outputs": [
        {
          "internalType": "address",
          "name": "",
          "type": "address"
        }
      ],
      "stateMutability": "view",
      "type": "function",
      "constant": true
    },
    {
      "inputs": [],
      "name": "renounceOwnership",
      "outputs": [],
      "stateMutability": "nonpayable",
      "type": "function"
    },
    {
      "inputs": [
        {
          "internalType": "address",
          "name": "newOwner",
          "type": "address"
        }
      ],
      "name": "transferOwnership",
      "outputs": [],
      "stateMutability": "nonpayable",
      "type": "function"
    },
    {
      "stateMutability": "payable",
      "type": "receive",
      "payable": true
    },
    {
      "inputs": [
        {
          "internalType": "bytes4",
          "name": "interfaceId",
          "type": "bytes4"
        }
      ],
      "name": "supportsInterface",
      "outputs": [
        {
          "internalType": "bool",
          "name": "",
          "type": "bool"
        }
      ],
      "stateMutability": "pure",
      "type": "function",
      "constant": true
    },
    {
      "inputs": [
        {
          "internalType": "address",
          "name": "operator",
          "type": "address"
        },
        {
          "internalType": "address",
          "name": "",
          "type": "address"
        },
        {
          "internalType": "uint256",
          "name": "tokenId",
          "type": "uint256"
        },
        {
          "internalType": "bytes",
          "name": "",
          "type": "bytes"
        }
      ],
      "name": "onERC721Received",
      "outputs": [
        {
          "internalType": "bytes4",
          "name": "",
          "type": "bytes4"
        }
      ],
      "stateMutability": "nonpayable",
      "type": "function"
    },
    {
      "inputs": [
        {
          "internalType": "address",
          "name": "currency",
          "type": "address"
        }
      ],
      "name": "getPriceUnit",
      "outputs": [
        {
          "internalType": "uint256",
          "name": "",
          "type": "uint256"
        }
      ],
      "stateMutability": "view",
      "type": "function",
      "constant": true
    },
    {
      "inputs": [
        {
          "internalType": "address",
          "name": "account",
          "type": "address"
        }
      ],
      "name": "balanceOf",
      "outputs": [
        {
          "internalType": "uint256",
          "name": "",
          "type": "uint256"
        }
      ],
      "stateMutability": "view",
      "type": "function",
      "constant": true
    },
    {
      "inputs": [
        {
          "internalType": "address",
          "name": "account",
          "type": "address"
        }
      ],
      "name": "withdraw",
      "outputs": [],
      "stateMutability": "nonpayable",
      "type": "function"
    },
    {
      "inputs": [
        {
          "internalType": "uint256",
          "name": "id",
          "type": "uint256"
        }
      ],
      "name": "getListing",
      "outputs": [
        {
          "components": [
            {
              "internalType": "address",
              "name": "creator",
              "type": "address"
            },
            {
              "internalType": "address",
              "name": "currency",
              "type": "address"
            },
            {
              "internalType": "contract IERC721",
              "name": "platform",
              "type": "address"
            },
            {
              "internalType": "uint256",
              "name": "token",
              "type": "uint256"
            },
            {
              "internalType": "uint256",
              "name": "price",
              "type": "uint256"
            },
            {
              "internalType": "address",
              "name": "referrer",
              "type": "address"
            },
            {
              "internalType": "bool",
              "name": "allowMarketplace",
              "type": "bool"
            },
            {
              "internalType": "address",
              "name": "marketplace",
              "type": "address"
            },
            {
              "internalType": "address",
              "name": "highBidder",
              "type": "address"
            },
            {
              "internalType": "uint256",
              "name": "endTime",
              "type": "uint256"
            },
            {
              "internalType": "bool",
              "name": "paidOut",
              "type": "bool"
            }
          ],
          "internalType": "struct MyNFT.Listing",
          "name": "",
          "type": "tuple"
        }
      ],
      "stateMutability": "view",
      "type": "function",
      "constant": true
    },
    {
      "inputs": [
        {
          "internalType": "address",
          "name": "currency",
          "type": "address"
        },
        {
          "internalType": "contract IERC721",
          "name": "platform",
          "type": "address"
        },
        {
          "internalType": "uint256",
          "name": "token",
          "type": "uint256"
        },
        {
          "internalType": "uint256",
          "name": "price",
          "type": "uint256"
        },
        {
          "internalType": "uint8",
          "name": "timeInDays",
          "type": "uint8"
        },
        {
          "internalType": "address",
          "name": "referrer",
          "type": "address"
        },
        {
          "internalType": "bool",
          "name": "allowMarketplace",
          "type": "bool"
        }
      ],
      "name": "list",
      "outputs": [
        {
          "internalType": "uint64",
          "name": "",
          "type": "uint64"
        }
      ],
      "stateMutability": "nonpayable",
      "type": "function"
    },
    {
      "inputs": [
        {
          "internalType": "uint64",
          "name": "id",
          "type": "uint64"
        }
      ],
      "name": "getNextBid",
      "outputs": [
        {
          "internalType": "uint256",
          "name": "",
          "type": "uint256"
        }
      ],
      "stateMutability": "view",
      "type": "function",
      "constant": true
    },
    {
      "inputs": [
        {
          "internalType": "uint64",
          "name": "id",
          "type": "uint64"
        },
        {
          "internalType": "address",
          "name": "marketplace",
          "type": "address"
        }
      ],
      "name": "bid",
      "outputs": [],
      "stateMutability": "payable",
      "type": "function",
      "payable": true
    },
    {
      "inputs": [
        {
          "internalType": "uint64",
          "name": "id",
          "type": "uint64"
        }
      ],
      "name": "finish",
      "outputs": [],
      "stateMutability": "nonpayable",
      "type": "function"
    }
  ],
  "bytecode": "0x60806040523480156200001157600080fd5b50600160008190555060006200002c620000d160201b60201c565b905080600160006101000a81548173ffffffffffffffffffffffffffffffffffffffff021916908373ffffffffffffffffffffffffffffffffffffffff1602179055508073ffffffffffffffffffffffffffffffffffffffff16600073ffffffffffffffffffffffffffffffffffffffff167f8be0079c531659141344cd1fd0a4f28419497f9722a3daafe3b4186f6b6457e060405160405180910390a350620000d9565b600033905090565b613bfe80620000e96000396000f3fe6080604052600436106100c65760003560e01c8063715018a61161007f578063b4fb66d611610059578063b4fb66d6146102aa578063d5523afc146102e7578063f2fde38b14610324578063f785e7851461034d576100d8565b8063715018a61461022b57806384f2dc33146102425780638da5cb5b1461027f576100d8565b806301ffc9a7146100e5578063107a274a14610122578063150b7a021461015f57806343cf2f0b1461019c57806351cff8d9146101c557806370a08231146101ee576100d8565b366100d85760006100d657600080fd5b005b60006100e357600080fd5b005b3480156100f157600080fd5b5061010c6004803603810190610107919061296e565b610369565b60405161011991906132b6565b60405180910390f35b34801561012e57600080fd5b5061014960048036038101906101449190612997565b61039b565b6040516101569190613569565b60405180910390f35b34801561016b57600080fd5b5061018660048036038101906101819190612827565b610621565b60405161019391906132d1565b60405180910390f35b3480156101a857600080fd5b506101c360048036038101906101be91906129c0565b6106ab565b005b3480156101d157600080fd5b506101ec60048036038101906101e791906127fe565b610ce4565b005b3480156101fa57600080fd5b50610215600480360381019061021091906127fe565b610e3e565b6040516102229190613585565b60405180910390f35b34801561023757600080fd5b50610240610e87565b005b34801561024e57600080fd5b50610269600480360381019061026491906129c0565b610fc4565b6040516102769190613585565b60405180910390f35b34801561028b57600080fd5b506102946112e2565b6040516102a191906131e8565b60405180910390f35b3480156102b657600080fd5b506102d160048036038101906102cc91906127fe565b61130c565b6040516102de9190613585565b60405180910390f35b3480156102f357600080fd5b5061030e600480360381019061030991906128a7565b611422565b60405161031b91906135a0565b60405180910390f35b34801561033057600080fd5b5061034b600480360381019061034691906127fe565b611ac3565b005b610367600480360381019061036291906129e9565b611c6f565b005b600063150b7a0260e01b827bffffffffffffffffffffffffffffffffffffffffffffffffffffffff1916149050919050565b6103a3612615565b60036000838152602001908152602001600020604051806101600160405290816000820160009054906101000a900473ffffffffffffffffffffffffffffffffffffffff1673ffffffffffffffffffffffffffffffffffffffff1673ffffffffffffffffffffffffffffffffffffffff1681526020016001820160009054906101000a900473ffffffffffffffffffffffffffffffffffffffff1673ffffffffffffffffffffffffffffffffffffffff1673ffffffffffffffffffffffffffffffffffffffff1681526020016002820160009054906101000a900473ffffffffffffffffffffffffffffffffffffffff1673ffffffffffffffffffffffffffffffffffffffff1673ffffffffffffffffffffffffffffffffffffffff16815260200160038201548152602001600482015481526020016005820160009054906101000a900473ffffffffffffffffffffffffffffffffffffffff1673ffffffffffffffffffffffffffffffffffffffff1673ffffffffffffffffffffffffffffffffffffffff1681526020016005820160149054906101000a900460ff161515151581526020016006820160009054906101000a900473ffffffffffffffffffffffffffffffffffffffff1673ffffffffffffffffffffffffffffffffffffffff1673ffffffffffffffffffffffffffffffffffffffff1681526020016007820160009054906101000a900473ffffffffffffffffffffffffffffffffffffffff1673ffffffffffffffffffffffffffffffffffffffff1673ffffffffffffffffffffffffffffffffffffffff168152602001600882015481526020016009820160009054906101000a900460ff1615151515815250509050919050565b60003073ffffffffffffffffffffffffffffffffffffffff168673ffffffffffffffffffffffffffffffffffffffff1614610691576040517f08c379a000000000000000000000000000000000000000000000000000000000815260040161068890613469565b60405180910390fd5b8360058190555063150b7a0260e01b905095945050505050565b600260005414156106f1576040517f08c379a00000000000000000000000000000000000000000000000000000000081526004016106e890613549565b60405180910390fd5b6002600081905550600460009054906101000a900467ffffffffffffffff1667ffffffffffffffff168167ffffffffffffffff1610610765576040517f08c379a000000000000000000000000000000000000000000000000000000000815260040161075c90613409565b60405180910390fd5b6000600360008367ffffffffffffffff168152602001908152602001600020905042816008015411156107cd576040517f08c379a00000000000000000000000000000000000000000000000000000000081526004016107c490613389565b60405180910390fd5b8060090160009054906101000a900460ff161561081f576040517f08c379a0000000000000000000000000000000000000000000000000000000008152600401610816906133e9565b60405180910390fd5b60018160090160006101000a81548160ff02191690831515021790555060008082600401549050600073ffffffffffffffffffffffffffffffffffffffff168360070160009054906101000a900473ffffffffffffffffffffffffffffffffffffffff1673ffffffffffffffffffffffffffffffffffffffff1614610bba576000601984600401546108b19190613681565b90506000819050600073ffffffffffffffffffffffffffffffffffffffff168560050160009054906101000a900473ffffffffffffffffffffffffffffffffffffffff1673ffffffffffffffffffffffffffffffffffffffff1614610a385760028161091d9190613681565b90506000819050600073ffffffffffffffffffffffffffffffffffffffff168660060160009054906101000a900473ffffffffffffffffffffffffffffffffffffffff1673ffffffffffffffffffffffffffffffffffffffff16146109df576002816109899190613681565b90506109de8660010160009054906101000a900473ffffffffffffffffffffffffffffffffffffffff168760060160009054906101000a900473ffffffffffffffffffffffffffffffffffffffff16836120ea565b5b610a328660010160009054906101000a900473ffffffffffffffffffffffffffffffffffffffff168760050160009054906101000a900473ffffffffffffffffffffffffffffffffffffffff16836120ea565b50610af4565b600073ffffffffffffffffffffffffffffffffffffffff168560060160009054906101000a900473ffffffffffffffffffffffffffffffffffffffff1673ffffffffffffffffffffffffffffffffffffffff1614610af357600281610a9d9190613681565b9050610af28560010160009054906101000a900473ffffffffffffffffffffffffffffffffffffffff168660060160009054906101000a900473ffffffffffffffffffffffffffffffffffffffff16836120ea565b5b5b610b2a8560010160009054906101000a900473ffffffffffffffffffffffffffffffffffffffff16610b246112e2565b836120ea565b610b8c8560010160009054906101000a900473ffffffffffffffffffffffffffffffffffffffff168660000160009054906101000a900473ffffffffffffffffffffffffffffffffffffffff16848860040154610b879190613905565b6120ea565b8460070160009054906101000a900473ffffffffffffffffffffffffffffffffffffffff1693505050610be6565b8260000160009054906101000a900473ffffffffffffffffffffffffffffffffffffffff169150600090505b8260020160009054906101000a900473ffffffffffffffffffffffffffffffffffffffff1673ffffffffffffffffffffffffffffffffffffffff166342842e0e308486600301546040518463ffffffff1660e01b8152600401610c4b93929190613203565b600060405180830381600087803b158015610c6557600080fd5b505af1158015610c79573d6000803e3d6000fd5b505050508173ffffffffffffffffffffffffffffffffffffffff168467ffffffffffffffff167fb78855d635dc85f7e40710ac78f3e31deb7f450cde53401783bc430e49cb22ce83604051610cce9190613585565b60405180910390a3505050600160008190555050565b60026000541415610d2a576040517f08c379a0000000000000000000000000000000000000000000000000000000008152600401610d2190613549565b60405180910390fd5b60026000819055506000600260008373ffffffffffffffffffffffffffffffffffffffff1673ffffffffffffffffffffffffffffffffffffffff1681526020019081526020016000205490506000600260008473ffffffffffffffffffffffffffffffffffffffff1673ffffffffffffffffffffffffffffffffffffffff1681526020019081526020016000208190555060008273ffffffffffffffffffffffffffffffffffffffff1682604051610de1906131d3565b60006040518083038185875af1925050503d8060008114610e1e576040519150601f19603f3d011682016040523d82523d6000602084013e610e23565b606091505b5050905080610e3157600080fd5b5050600160008190555050565b6000600260008373ffffffffffffffffffffffffffffffffffffffff1673ffffffffffffffffffffffffffffffffffffffff168152602001908152602001600020549050919050565b610e8f6121e3565b73ffffffffffffffffffffffffffffffffffffffff16610ead6112e2565b73ffffffffffffffffffffffffffffffffffffffff1614610f03576040517f08c379a0000000000000000000000000000000000000000000000000000000008152600401610efa90613489565b60405180910390fd5b600073ffffffffffffffffffffffffffffffffffffffff16600160009054906101000a900473ffffffffffffffffffffffffffffffffffffffff1673ffffffffffffffffffffffffffffffffffffffff167f8be0079c531659141344cd1fd0a4f28419497f9722a3daafe3b4186f6b6457e060405160405180910390a36000600160006101000a81548173ffffffffffffffffffffffffffffffffffffffff021916908373ffffffffffffffffffffffffffffffffffffffff160217905550565b600080600360008467ffffffffffffffff168152602001908152602001600020604051806101600160405290816000820160009054906101000a900473ffffffffffffffffffffffffffffffffffffffff1673ffffffffffffffffffffffffffffffffffffffff1673ffffffffffffffffffffffffffffffffffffffff1681526020016001820160009054906101000a900473ffffffffffffffffffffffffffffffffffffffff1673ffffffffffffffffffffffffffffffffffffffff1673ffffffffffffffffffffffffffffffffffffffff1681526020016002820160009054906101000a900473ffffffffffffffffffffffffffffffffffffffff1673ffffffffffffffffffffffffffffffffffffffff1673ffffffffffffffffffffffffffffffffffffffff16815260200160038201548152602001600482015481526020016005820160009054906101000a900473ffffffffffffffffffffffffffffffffffffffff1673ffffffffffffffffffffffffffffffffffffffff1673ffffffffffffffffffffffffffffffffffffffff1681526020016005820160149054906101000a900460ff161515151581526020016006820160009054906101000a900473ffffffffffffffffffffffffffffffffffffffff1673ffffffffffffffffffffffffffffffffffffffff1673ffffffffffffffffffffffffffffffffffffffff1681526020016007820160009054906101000a900473ffffffffffffffffffffffffffffffffffffffff1673ffffffffffffffffffffffffffffffffffffffff1673ffffffffffffffffffffffffffffffffffffffff168152602001600882015481526020016009820160009054906101000a900460ff1615151515815250509050600073ffffffffffffffffffffffffffffffffffffffff1681610100015173ffffffffffffffffffffffffffffffffffffffff1614156112915780608001519150506112dd565b60006112a0826020015161130c565b90508081601484608001516112b59190613681565b84608001516112c491906135ed565b6112ce9190613681565b6112d891906138ab565b925050505b919050565b6000600160009054906101000a900473ffffffffffffffffffffffffffffffffffffffff16905090565b60008073ffffffffffffffffffffffffffffffffffffffff168273ffffffffffffffffffffffffffffffffffffffff16141561136357600460126113509190613939565b600a61135c9190613750565b905061141d565b60008273ffffffffffffffffffffffffffffffffffffffff1663313ce5676040518163ffffffff1660e01b815260040160206040518083038186803b1580156113ab57600080fd5b505afa1580156113bf573d6000803e3d6000fd5b505050506040513d601f19601f820116820180604052508101906113e39190612a25565b60ff169050600460ff1681116113fd57600191505061141d565b600460ff168161140d9190613905565b600a6114199190613705565b9150505b919050565b60006002600054141561146a576040517f08c379a000000000000000000000000000000000000000000000000000000000815260040161146190613549565b60405180910390fd5b60026000819055508673ffffffffffffffffffffffffffffffffffffffff166301ffc9a76380ac58cd6040518263ffffffff1660e01b81526004016114af91906132ec565b60206040518083038186803b1580156114c757600080fd5b505afa1580156114db573d6000803e3d6000fd5b505050506040513d601f19601f820116820180604052508101906114ff9190612945565b61153e576040517f08c379a0000000000000000000000000000000000000000000000000000000008152600401611535906134c9565b60405180910390fd5b60006115498961130c565b905080601461155891906138ab565b86101561159a576040517f08c379a000000000000000000000000000000000000000000000000000000000815260040161159190613509565b60405180910390fd5b858182886115a89190613681565b6115b291906138ab565b146115f2576040517f08c379a00000000000000000000000000000000000000000000000000000000081526004016115e9906133a9565b60405180910390fd5b601e8560ff161115611639576040517f08c379a000000000000000000000000000000000000000000000000000000000815260040161163090613329565b60405180910390fd5b6000600460009054906101000a900467ffffffffffffffff1690506001600460009054906101000a900467ffffffffffffffff166116779190613643565b600460006101000a81548167ffffffffffffffff021916908367ffffffffffffffff1602179055508873ffffffffffffffffffffffffffffffffffffffff166342842e0e33308b6040518463ffffffff1660e01b81526004016116dc93929190613203565b600060405180830381600087803b1580156116f657600080fd5b505af115801561170a573d6000803e3d6000fd5b505050506040518061016001604052803373ffffffffffffffffffffffffffffffffffffffff1681526020018b73ffffffffffffffffffffffffffffffffffffffff1681526020018a73ffffffffffffffffffffffffffffffffffffffff16815260200160055481526020018881526020018673ffffffffffffffffffffffffffffffffffffffff1681526020018515158152602001600073ffffffffffffffffffffffffffffffffffffffff168152602001600073ffffffffffffffffffffffffffffffffffffffff168152602001620151808860ff166117ec919061386e565b62ffffff16426117fc91906135ed565b815260200160001515815250600360008367ffffffffffffffff16815260200190815260200160002060008201518160000160006101000a81548173ffffffffffffffffffffffffffffffffffffffff021916908373ffffffffffffffffffffffffffffffffffffffff16021790555060208201518160010160006101000a81548173ffffffffffffffffffffffffffffffffffffffff021916908373ffffffffffffffffffffffffffffffffffffffff16021790555060408201518160020160006101000a81548173ffffffffffffffffffffffffffffffffffffffff021916908373ffffffffffffffffffffffffffffffffffffffff160217905550606082015181600301556080820151816004015560a08201518160050160006101000a81548173ffffffffffffffffffffffffffffffffffffffff021916908373ffffffffffffffffffffffffffffffffffffffff16021790555060c08201518160050160146101000a81548160ff02191690831515021790555060e08201518160060160006101000a81548173ffffffffffffffffffffffffffffffffffffffff021916908373ffffffffffffffffffffffffffffffffffffffff1602179055506101008201518160070160006101000a81548173ffffffffffffffffffffffffffffffffffffffff021916908373ffffffffffffffffffffffffffffffffffffffff16021790555061012082015181600801556101408201518160090160006101000a81548160ff0219169083151502179055509050508873ffffffffffffffffffffffffffffffffffffffff163373ffffffffffffffffffffffffffffffffffffffff168267ffffffffffffffff167fb8160cd5a5d5f01ed9352faa7324b9df403f9c15c1ed9ba8cb8ee8ddbd50b7488d8c8c8c8c604051611aa3959493929190613263565b60405180910390a480925050506001600081905550979650505050505050565b611acb6121e3565b73ffffffffffffffffffffffffffffffffffffffff16611ae96112e2565b73ffffffffffffffffffffffffffffffffffffffff1614611b3f576040517f08c379a0000000000000000000000000000000000000000000000000000000008152600401611b3690613489565b60405180910390fd5b600073ffffffffffffffffffffffffffffffffffffffff168173ffffffffffffffffffffffffffffffffffffffff161415611baf576040517f08c379a0000000000000000000000000000000000000000000000000000000008152600401611ba690613369565b60405180910390fd5b8073ffffffffffffffffffffffffffffffffffffffff16600160009054906101000a900473ffffffffffffffffffffffffffffffffffffffff1673ffffffffffffffffffffffffffffffffffffffff167f8be0079c531659141344cd1fd0a4f28419497f9722a3daafe3b4186f6b6457e060405160405180910390a380600160006101000a81548173ffffffffffffffffffffffffffffffffffffffff021916908373ffffffffffffffffffffffffffffffffffffffff16021790555050565b60026000541415611cb5576040517f08c379a0000000000000000000000000000000000000000000000000000000008152600401611cac90613549565b60405180910390fd5b6002600081905550600460009054906101000a900467ffffffffffffffff1667ffffffffffffffff168267ffffffffffffffff1610611d29576040517f08c379a0000000000000000000000000000000000000000000000000000000008152600401611d2090613409565b60405180910390fd5b6000600360008467ffffffffffffffff16815260200190815260200160002090503373ffffffffffffffffffffffffffffffffffffffff168160070160009054906101000a900473ffffffffffffffffffffffffffffffffffffffff1673ffffffffffffffffffffffffffffffffffffffff161415611ddd576040517f08c379a0000000000000000000000000000000000000000000000000000000008152600401611dd490613349565b60405180910390fd5b80600801544210611e23576040517f08c379a0000000000000000000000000000000000000000000000000000000008152600401611e1a906134a9565b60405180910390fd5b8060050160149054906101000a900460ff16611ea957600073ffffffffffffffffffffffffffffffffffffffff168273ffffffffffffffffffffffffffffffffffffffff1614611ea8576040517f08c379a0000000000000000000000000000000000000000000000000000000008152600401611e9f90613449565b60405180910390fd5b5b6000611eb484610fc4565b9050611ee48260010160009054906101000a900473ffffffffffffffffffffffffffffffffffffffff16826121eb565b60008260040154905060008360070160009054906101000a900473ffffffffffffffffffffffffffffffffffffffff169050828460040181905550338460070160006101000a81548173ffffffffffffffffffffffffffffffffffffffff021916908373ffffffffffffffffffffffffffffffffffffffff160217905550848460060160006101000a81548173ffffffffffffffffffffffffffffffffffffffff021916908373ffffffffffffffffffffffffffffffffffffffff1602179055503373ffffffffffffffffffffffffffffffffffffffff168667ffffffffffffffff167fdbf5dea084c6b3ed344cc0976b2643f2c9a3400350e04162ea3f7302c16ee9148660040154604051611ffa9190613585565b60405180910390a3836008015460b44261201491906135ed565b11156120765760b44261202791906135ed565b84600801819055508567ffffffffffffffff167fb4a60ebc2cf1c50677776bb7f2aea10caa932a042d60d2ac4697ef6d9cb8afb0856008015460405161206d9190613585565b60405180910390a25b600073ffffffffffffffffffffffffffffffffffffffff168173ffffffffffffffffffffffffffffffffffffffff16146120da576120d98460010160009054906101000a900473ffffffffffffffffffffffffffffffffffffffff1682846120ea565b5b5050505060016000819055505050565b600073ffffffffffffffffffffffffffffffffffffffff168373ffffffffffffffffffffffffffffffffffffffff1614156121b25780600260008473ffffffffffffffffffffffffffffffffffffffff1673ffffffffffffffffffffffffffffffffffffffff1681526020019081526020016000205461216a91906135ed565b600260008473ffffffffffffffffffffffffffffffffffffffff1673ffffffffffffffffffffffffffffffffffffffff168152602001908152602001600020819055506121de565b6121dd82828573ffffffffffffffffffffffffffffffffffffffff166122999092919063ffffffff16565b5b505050565b600033905090565b600073ffffffffffffffffffffffffffffffffffffffff168273ffffffffffffffffffffffffffffffffffffffff16141561226757803414612262576040517f08c379a000000000000000000000000000000000000000000000000000000000815260040161225990613429565b60405180910390fd5b612295565b6122943330838573ffffffffffffffffffffffffffffffffffffffff1661231f909392919063ffffffff16565b5b5050565b61231a8363a9059cbb60e01b84846040516024016122b892919061323a565b604051602081830303815290604052907bffffffffffffffffffffffffffffffffffffffffffffffffffffffff19166020820180517bffffffffffffffffffffffffffffffffffffffffffffffffffffffff83818316178352505050506123a8565b505050565b6123a2846323b872dd60e01b85858560405160240161234093929190613203565b604051602081830303815290604052907bffffffffffffffffffffffffffffffffffffffffffffffffffffffff19166020820180517bffffffffffffffffffffffffffffffffffffffffffffffffffffffff83818316178352505050506123a8565b50505050565b600061240a826040518060400160405280602081526020017f5361666545524332303a206c6f772d6c6576656c2063616c6c206661696c65648152508573ffffffffffffffffffffffffffffffffffffffff1661246f9092919063ffffffff16565b905060008151111561246a578080602001905181019061242a9190612945565b612469576040517f08c379a000000000000000000000000000000000000000000000000000000000815260040161246090613529565b60405180910390fd5b5b505050565b606061247e8484600085612487565b90509392505050565b6060824710156124cc576040517f08c379a00000000000000000000000000000000000000000000000000000000081526004016124c3906133c9565b60405180910390fd5b6124d58561259b565b612514576040517f08c379a000000000000000000000000000000000000000000000000000000000815260040161250b906134e9565b60405180910390fd5b6000808673ffffffffffffffffffffffffffffffffffffffff16858760405161253d91906131bc565b60006040518083038185875af1925050503d806000811461257a576040519150601f19603f3d011682016040523d82523d6000602084013e61257f565b606091505b509150915061258f8282866125ae565b92505050949350505050565b600080823b905060008111915050919050565b606083156125be5782905061260e565b6000835111156125d15782518084602001fd5b816040517f08c379a00000000000000000000000000000000000000000000000000000000081526004016126059190613307565b60405180910390fd5b9392505050565b604051806101600160405280600073ffffffffffffffffffffffffffffffffffffffff168152602001600073ffffffffffffffffffffffffffffffffffffffff168152602001600073ffffffffffffffffffffffffffffffffffffffff1681526020016000815260200160008152602001600073ffffffffffffffffffffffffffffffffffffffff168152602001600015158152602001600073ffffffffffffffffffffffffffffffffffffffff168152602001600073ffffffffffffffffffffffffffffffffffffffff168152602001600081526020016000151581525090565b60008135905061270681613b27565b92915050565b60008135905061271b81613b3e565b92915050565b60008151905061273081613b3e565b92915050565b60008135905061274581613b55565b92915050565b60008083601f84011261275d57600080fd5b8235905067ffffffffffffffff81111561277657600080fd5b60208301915083600182028301111561278e57600080fd5b9250929050565b6000813590506127a481613b6c565b92915050565b6000813590506127b981613b83565b92915050565b6000813590506127ce81613b9a565b92915050565b6000813590506127e381613bb1565b92915050565b6000815190506127f881613bb1565b92915050565b60006020828403121561281057600080fd5b600061281e848285016126f7565b91505092915050565b60008060008060006080868803121561283f57600080fd5b600061284d888289016126f7565b955050602061285e888289016126f7565b945050604061286f888289016127aa565b935050606086013567ffffffffffffffff81111561288c57600080fd5b6128988882890161274b565b92509250509295509295909350565b600080600080600080600060e0888a0312156128c257600080fd5b60006128d08a828b016126f7565b97505060206128e18a828b01612795565b96505060406128f28a828b016127aa565b95505060606129038a828b016127aa565b94505060806129148a828b016127d4565b93505060a06129258a828b016126f7565b92505060c06129368a828b0161270c565b91505092959891949750929550565b60006020828403121561295757600080fd5b600061296584828501612721565b91505092915050565b60006020828403121561298057600080fd5b600061298e84828501612736565b91505092915050565b6000602082840312156129a957600080fd5b60006129b7848285016127aa565b91505092915050565b6000602082840312156129d257600080fd5b60006129e0848285016127bf565b91505092915050565b600080604083850312156129fc57600080fd5b6000612a0a858286016127bf565b9250506020612a1b858286016126f7565b9150509250929050565b600060208284031215612a3757600080fd5b6000612a45848285016127e9565b91505092915050565b612a578161396d565b82525050565b612a668161396d565b82525050565b612a758161397f565b82525050565b612a848161397f565b82525050565b612a938161398b565b82525050565b6000612aa4826135bb565b612aae81856135d1565b9350612abe818560208601613a6b565b80840191505092915050565b612ad381613a2d565b82525050565b612ae281613a51565b82525050565b6000612af3826135c6565b612afd81856135dc565b9350612b0d818560208601613a6b565b612b1681613afc565b840191505092915050565b6000612b2e6013836135dc565b91507f61756374696f6e20697320746f6f206c6f6e67000000000000000000000000006000830152602082019050919050565b6000612b6e6017836135dc565b91507f616c7265616479207468652068696768206269646465720000000000000000006000830152602082019050919050565b6000612bae6026836135dc565b91507f4f776e61626c653a206e6577206f776e657220697320746865207a65726f206160008301527f64647265737300000000000000000000000000000000000000000000000000006020830152604082019050919050565b6000612c146016836135dc565b91507f6c697374696e67206861732079657420746f20656e64000000000000000000006000830152602082019050919050565b6000612c54603a836135dc565b91507f70726963652069736e277420612076616c6964206d756c7469706c65206f662060008301527f746869732063757272656e6379277320707269636520756e69740000000000006020830152604082019050919050565b6000612cba6026836135dc565b91507f416464726573733a20696e73756666696369656e742062616c616e636520666f60008301527f722063616c6c00000000000000000000000000000000000000000000000000006020830152604082019050919050565b6000612d20601c836135dc565b91507f6c697374696e672077617320616c72656164792070616964206f7574000000006000830152602082019050919050565b6000612d606015836135dc565b91507f6c697374696e6720646f65736e277420657869737400000000000000000000006000830152602082019050919050565b6000612da06011836135dc565b91507f696e76616c6964204554482076616c75650000000000000000000000000000006000830152602082019050919050565b6000612de0602b836135dc565b91507f6d61726b6574706c61636573206172656e277420616c6c6f776564206f6e207460008301527f6869732061756374696f6e0000000000000000000000000000000000000000006020830152604082019050919050565b6000612e46601a836135dc565b91507f736f6d656f6e6520656c73652073656e742075732061204e46540000000000006000830152602082019050919050565b6000612e866020836135dc565b91507f4f776e61626c653a2063616c6c6572206973206e6f7420746865206f776e65726000830152602082019050919050565b6000612ec6600d836135dc565b91507f6c697374696e6720656e646564000000000000000000000000000000000000006000830152602082019050919050565b6000612f066021836135dc565b91507f706c6174666f726d2069736e277420616e2045524337323120636f6e7472616360008301527f74000000000000000000000000000000000000000000000000000000000000006020830152604082019050919050565b6000612f6c6000836135d1565b9150600082019050919050565b6000612f86601d836135dc565b91507f416464726573733a2063616c6c20746f206e6f6e2d636f6e74726163740000006000830152602082019050919050565b6000612fc66010836135dc565b91507f707269636520697320746f6f206c6f77000000000000000000000000000000006000830152602082019050919050565b6000613006602a836135dc565b91507f5361666545524332303a204552433230206f7065726174696f6e20646964206e60008301527f6f742073756363656564000000000000000000000000000000000000000000006020830152604082019050919050565b600061306c601f836135dc565b91507f5265656e7472616e637947756172643a207265656e7472616e742063616c6c006000830152602082019050919050565b610160820160008201516130b66000850182612a4e565b5060208201516130c96020850182612a4e565b5060408201516130dc6040850182612aca565b5060608201516130ef6060850182613180565b5060808201516131026080850182613180565b5060a082015161311560a0850182612a4e565b5060c082015161312860c0850182612a6c565b5060e082015161313b60e0850182612a4e565b50610100820151613150610100850182612a4e565b50610120820151613165610120850182613180565b5061014082015161317a610140850182612a6c565b50505050565b61318981613a02565b82525050565b61319881613a02565b82525050565b6131a781613a0c565b82525050565b6131b681613a20565b82525050565b60006131c88284612a99565b915081905092915050565b60006131de82612f5f565b9150819050919050565b60006020820190506131fd6000830184612a5d565b92915050565b60006060820190506132186000830186612a5d565b6132256020830185612a5d565b613232604083018461318f565b949350505050565b600060408201905061324f6000830185612a5d565b61325c602083018461318f565b9392505050565b600060a0820190506132786000830188612a5d565b613285602083018761318f565b613292604083018661318f565b61329f60608301856131ad565b6132ac6080830184612a5d565b9695505050505050565b60006020820190506132cb6000830184612a7b565b92915050565b60006020820190506132e66000830184612a8a565b92915050565b60006020820190506133016000830184612ad9565b92915050565b600060208201905081810360008301526133218184612ae8565b905092915050565b6000602082019050818103600083015261334281612b21565b9050919050565b6000602082019050818103600083015261336281612b61565b9050919050565b6000602082019050818103600083015261338281612ba1565b9050919050565b600060208201905081810360008301526133a281612c07565b9050919050565b600060208201905081810360008301526133c281612c47565b9050919050565b600060208201905081810360008301526133e281612cad565b9050919050565b6000602082019050818103600083015261340281612d13565b9050919050565b6000602082019050818103600083015261342281612d53565b9050919050565b6000602082019050818103600083015261344281612d93565b9050919050565b6000602082019050818103600083015261346281612dd3565b9050919050565b6000602082019050818103600083015261348281612e39565b9050919050565b600060208201905081810360008301526134a281612e79565b9050919050565b600060208201905081810360008301526134c281612eb9565b9050919050565b600060208201905081810360008301526134e281612ef9565b9050919050565b6000602082019050818103600083015261350281612f79565b9050919050565b6000602082019050818103600083015261352281612fb9565b9050919050565b6000602082019050818103600083015261354281612ff9565b9050919050565b600060208201905081810360008301526135628161305f565b9050919050565b60006101608201905061357f600083018461309f565b92915050565b600060208201905061359a600083018461318f565b92915050565b60006020820190506135b5600083018461319e565b92915050565b600081519050919050565b600081519050919050565b600081905092915050565b600082825260208201905092915050565b60006135f882613a02565b915061360383613a02565b9250827fffffffffffffffffffffffffffffffffffffffffffffffffffffffffffffffff0382111561363857613637613a9e565b5b828201905092915050565b600061364e82613a0c565b915061365983613a0c565b92508267ffffffffffffffff0382111561367657613675613a9e565b5b828201905092915050565b600061368c82613a02565b915061369783613a02565b9250826136a7576136a6613acd565b5b828204905092915050565b6000808291508390505b60018511156136fc578086048111156136d8576136d7613a9e565b5b60018516156136e75780820291505b80810290506136f585613b1a565b94506136bc565b94509492505050565b600061371082613a02565b915061371b83613a02565b92506137487fffffffffffffffffffffffffffffffffffffffffffffffffffffffffffffffff848461379b565b905092915050565b600061375b82613a02565b915061376683613a20565b92506137937fffffffffffffffffffffffffffffffffffffffffffffffffffffffffffffffff848461379b565b905092915050565b6000826137ab5760019050613867565b816137b95760009050613867565b81600181146137cf57600281146137d957613808565b6001915050613867565b60ff8411156137eb576137ea613a9e565b5b8360020a91508482111561380257613801613a9e565b5b50613867565b5060208310610133831016604e8410600b841016171561383d5782820a90508381111561383857613837613a9e565b5b613867565b61384a84848460016136b2565b9250905081840481111561386157613860613a9e565b5b81810290505b9392505050565b6000613879826139f3565b9150613884836139f3565b92508162ffffff04831182151516156138a05761389f613a9e565b5b828202905092915050565b60006138b682613a02565b91506138c183613a02565b9250817fffffffffffffffffffffffffffffffffffffffffffffffffffffffffffffffff04831182151516156138fa576138f9613a9e565b5b828202905092915050565b600061391082613a02565b915061391b83613a02565b92508282101561392e5761392d613a9e565b5b828203905092915050565b600061394482613a20565b915061394f83613a20565b92508282101561396257613961613a9e565b5b828203905092915050565b6000613978826139d3565b9050919050565b60008115159050919050565b60007fffffffff0000000000000000000000000000000000000000000000000000000082169050919050565b60006139c28261396d565b9050919050565b6000819050919050565b600073ffffffffffffffffffffffffffffffffffffffff82169050919050565b600062ffffff82169050919050565b6000819050919050565b600067ffffffffffffffff82169050919050565b600060ff82169050919050565b6000613a3882613a3f565b9050919050565b6000613a4a826139d3565b9050919050565b6000613a64613a5f836139c9565b613b0d565b9050919050565b60005b83811015613a89578082015181840152602081019050613a6e565b83811115613a98576000848401525b50505050565b7f4e487b7100000000000000000000000000000000000000000000000000000000600052601160045260246000fd5b7f4e487b7100000000000000000000000000000000000000000000000000000000600052601260045260246000fd5b6000601f19601f8301169050919050565b60008160e01b9050919050565b60008160011c9050919050565b613b308161396d565b8114613b3b57600080fd5b50565b613b478161397f565b8114613b5257600080fd5b50565b613b5e8161398b565b8114613b6957600080fd5b50565b613b75816139b7565b8114613b8057600080fd5b50565b613b8c81613a02565b8114613b9757600080fd5b50565b613ba381613a0c565b8114613bae57600080fd5b50565b613bba81613a20565b8114613bc557600080fd5b5056fea2646970667358221220ea41daff6ed82f10420f1e1159c47c2ac7199792230e151b71c491b94dcc758064736f6c63430008000033",
  "immutableReferences": {},
  "source": "// SPDX-License-Identifier: MIT\n\nimport \"./ReentrancyGuard.sol\";\nimport \"./Ownable.sol\";\nimport \"./IDecimals.sol\";\nimport \"./IERC20.sol\";\nimport \"./SafeERC20.sol\";\nimport \"./IERC721.sol\";\nimport \"./IERC721Receiver.sol\";\n\npragma solidity ^0.8.0;\n\ncontract MyNFT is ReentrancyGuard, Ownable, IERC165 {\n  using SafeERC20 for IERC20;\n\n  // All prices will now be 0.0001, 0.0002, 0.0010...\n  // For coins with less accuracy, such as USD stablecoins, it'll be 0.01, 0.02...\n  uint8 constant DECIMAL_ACCURACY = 4;\n\n  // Time to extend the auction by if a last minute bid appears\n  uint256 constant EXTENSION_TIMER = 3 minutes;\n\n  mapping(address => uint256) private _balances;\n\n  // Lack of payable on addresses due to usage of call\n  struct Listing {\n    address creator;\n    address currency;\n    IERC721 platform;\n    uint256 token;\n    uint256 price;\n    address referrer;\n    bool allowMarketplace;\n    address marketplace;\n    address highBidder;\n    uint256 endTime;\n    bool paidOut;\n  }\n\n  mapping(uint256 => Listing) private _listings;\n  uint64 private _nextListing;\n  uint256 _lastReceived;\n\n  event ListingCreated(uint64 indexed id, address indexed creator, address currency,\n                         address indexed platform, uint256 token, uint256 price,\n                         uint8 timeInDays, address referrer);\n  event Bid(uint64 indexed id, address indexed bidder, uint256 price);\n  event AuctionExtended(uint64 indexed id, uint256 time);\n  event AuctionFinished(uint64 indexed id, address indexed nftRecipient, uint256 price);\n\n  // Fallbacks to return ETH flippantly sent\n  receive() payable external {\n    require(false);\n  }\n  fallback() payable external {\n    require(false);\n  }\n\n  constructor() Ownable() {}\n\n  // Support receiving NFTs\n  function supportsInterface(bytes4 interfaceId) external pure override returns (bool) {\n    return interfaceId == 0x150b7a02;\n  }\n  function onERC721Received(address operator, address, uint256 tokenId, bytes calldata) external returns (bytes4) {\n    require(operator == address(this), \"someone else sent us a NFT\");\n    _lastReceived = tokenId;\n    return IERC721Receiver.onERC721Received.selector;\n  }\n\n  // Get the minimum accuracy unit for a given accuracy\n  function getPriceUnit(address currency) public view returns (uint256) {\n    if (currency == address(0)) {\n      return 10 ** (18 - DECIMAL_ACCURACY);\n    }\n\n    // This technically doesn't work with all ERC20s\n    // The decimals method is optional, hence the custom interface\n    // That said, it is in almost every ERC20, a requirement for this, and needed for feasible operations with wrapped coins\n    uint256 decimals = IDecimals(currency).decimals();\n\n    if (decimals <= DECIMAL_ACCURACY) {\n      return 1;\n    }\n    return 10 ** (decimals - DECIMAL_ACCURACY);\n  }\n\n  // Only safe to call once per function due to how ETH is handled\n  // transferFrom(5) + transferFrom(5) is just 5 on ETH; not 10\n  function universalSingularTransferFrom(address currency, uint256 amount) internal {\n    if (currency == address(0)) {\n      require(msg.value == amount, \"invalid ETH value\");\n    } else {\n      IERC20(currency).safeTransferFrom(msg.sender, address(this), amount);\n    }\n  }\n\n  function universalTransfer(address currency, address dest, uint256 amount) internal {\n    if (currency == address(0)) {\n      _balances[dest] = _balances[dest] + amount;\n    } else {\n      IERC20(currency).safeTransfer(dest, amount);\n    }\n  }\n\n  function balanceOf(address account) external view returns (uint256) {\n    return _balances[account];\n  }\n\n  // This guard shouldn't be needed, at all, due to the CEI pattern\n  // This function is too critical to not warrant the extra gas though\n  function withdraw(address account) external nonReentrant {\n    uint256 balance = _balances[account];\n    _balances[account] = 0;\n    (bool success,) = account.call{value: balance}(\"\");\n    require(success);\n  }\n\n  function getListing(uint256 id) external view returns (Listing memory) {\n    return _listings[id];\n  }\n\n  function list(address currency, IERC721 platform, uint256 token, uint256 price,\n                  uint8 timeInDays, address referrer, bool allowMarketplace) external nonReentrant returns (uint64) {\n    // Make sure platform is a valid ERC721 contract\n    // The usage of safeTransferFrom should handle this, but this never hurts\n    require(platform.supportsInterface(0x80ac58cd), \"platform isn't an ERC721 contract\");\n\n    uint256 unit = getPriceUnit(currency);\n    // Minimum price check to ensure getNextBid doesn't flatline\n    require(price >= (20 * unit), \"price is too low\");\n    // Ensure it's a multiple of the price unit\n    require(((price / unit) * unit) == price, \"price isn't a valid multiple of this currency's price unit\");\n    require(timeInDays <= 30, \"auction is too long\");\n\n    uint64 id = _nextListing;\n    _nextListing = _nextListing + 1;\n\n    // Re-entrancy opportunity\n    // Given the usage of _lastReceived when we create the listing object, this does need the guard\n    platform.safeTransferFrom(msg.sender, address(this), token);\n\n    _listings[id] = Listing(\n      msg.sender,\n      currency,\n      platform,\n      _lastReceived,\n      price,\n      referrer,\n      allowMarketplace,\n      address(0),\n      address(0),\n      block.timestamp + (timeInDays * (1 days)),\n      false\n    );\n    emit ListingCreated(id, msg.sender, currency, address(platform), token, price, timeInDays, referrer);\n\n    return id;\n  }\n\n  function getNextBid(uint64 id) public view returns (uint256) {\n    // Increment by 5% at a time, rounding to the price unit\n    // This has two effects; stopping micro-bids, which isn't too relevant due to Eth gas fees\n    // It also damages marking up. If a NFT is at 1 ETH, this prevents doing 1.0001 ETH to immediately resell\n    // This requires doing at least 1.05 ETH, a much more noticeable amount\n    // This would risk flatlining (1 -> 1 -> 1) except there is a minimal list price of 20 units\n    Listing memory listing = _listings[id];\n    if (listing.highBidder == address(0)) {\n      return listing.price;\n    }\n    uint256 round = getPriceUnit(listing.currency);\n    return ((listing.price + (listing.price / 20)) / round) * round;\n  }\n\n  function bid(uint64 id, address marketplace) external payable nonReentrant {\n    // Make sure the auction exists\n    // Only works because list and bid have a shared reentrancy guard\n    require(id < _nextListing, \"listing doesn't exist\");\n    Listing storage listing = _listings[id];\n\n    require(listing.highBidder != msg.sender, \"already the high bidder\");\n    require(block.timestamp < listing.endTime, \"listing ended\");\n    if (!listing.allowMarketplace) {\n      require(marketplace == address(0), \"marketplaces aren't allowed on this auction\");\n    }\n\n    uint256 nextBid = getNextBid(id);\n    // This loses control of execution, yet no variables are set yet\n    // This means no interim state will be represented if asked\n    // Combined with the re-entrancy guard, this is secure\n    universalSingularTransferFrom(listing.currency, nextBid);\n\n    // We could grab price below, and then set, yet the lost contract execution is risky\n    // Despite the lack of re-entrancy, the metadata would be wrong, if asked for\n    uint256 oldPrice = listing.price;\n    address oldBidder = listing.highBidder;\n\n    // Note the new highest bidder\n    listing.price = nextBid;\n    listing.highBidder = msg.sender;\n    listing.marketplace = marketplace;\n    emit Bid(id, msg.sender, listing.price);\n\n    // Prevent sniping via extending the bid timer, if this was last-minute\n    if ((block.timestamp + EXTENSION_TIMER) > listing.endTime) {\n      listing.endTime = block.timestamp + EXTENSION_TIMER;\n      emit AuctionExtended(id, listing.endTime);\n    }\n\n    // Pay back the old bidder who is now out of the game\n    // Okay to lose execution as this is the end of the function\n    if (oldBidder != address(0)) {\n      universalTransfer(listing.currency, oldBidder, oldPrice);\n    }\n  }\n\n  function finish(uint64 id) external nonReentrant {\n    require(id < _nextListing, \"listing doesn't exist\");\n\n    Listing storage listing = _listings[id];\n    require(listing.endTime <= block.timestamp, \"listing has yet to end\");\n\n    // These two lines make re-entrancy a non-issue\n    // That said, this is critical to no be re-entrant, hence why the guard remains\n    // It should only removed to save a microscopic amount of gas\n    // Speaking of re-entrancy, any external contract which gains control will mis-interpret the metadata\n    // Since we do multiple partial payouts, we can either claim not paid out or paid out and be incorrect either way\n    // Or we can add a third state \"paying out\" for an extremely niche mid-payout re-entrant (on the contract level) case\n    // This just claims paid out and moves on\n    require(!listing.paidOut, \"listing was already paid out\");\n    listing.paidOut = true;\n\n    // The NFT goes to someone, yet if it's the creator/highBidder is undetermined\n    address nftRecipient;\n    // Set to 0 if there were no bidders\n    uint256 sellPrice = listing.price;\n    // If there was a bidder...\n    if (listing.highBidder != address(0)) {\n      // 4% fee\n      uint256 originalFees = listing.price / 25;\n      uint256 ownerFees = originalFees;\n\n      // Half goes to the referrer, if one exists\n      if (listing.referrer != address(0)) {\n        ownerFees /= 2;\n        uint256 referrerFees = ownerFees;\n        // If a marketplace (the referrer for the bidder, versus the seller) exists\n        // They get half the referral fees\n        if (listing.marketplace != address(0)) {\n          referrerFees /= 2;\n          universalTransfer(listing.currency, listing.marketplace, referrerFees);\n        }\n        universalTransfer(listing.currency, listing.referrer, referrerFees);\n      } else {\n        // Handle no referrer yet marketplace\n        if (listing.marketplace != address(0)) {\n          ownerFees /= 2;\n          // Misuse of ownerFees variable, yet avoids the referrerFees variable definition\n          universalTransfer(listing.currency, listing.marketplace, ownerFees);\n        }\n      }\n\n      // Rest of the fees goes to the platform's creators\n      universalTransfer(listing.currency, owner(), ownerFees);\n\n      // Pay out the listing (post fees)\n      universalTransfer(listing.currency, listing.creator, listing.price - originalFees);\n\n      // Note the NFT recipient\n      nftRecipient = listing.highBidder;\n    // Else, restore ownership to the owner\n    } else {\n      nftRecipient = listing.creator;\n      sellPrice = 0;\n    }\n\n    listing.platform.safeTransferFrom(address(this), nftRecipient, listing.token);\n    emit AuctionFinished(id, nftRecipient, sellPrice);\n  }\n}\n",
  "sourcePath": "/Users/jeffreyhopwood/Documents/apps/MyNFT/contracts/MyNFT.sol",
  "compiler": {
    "name": "solc",
    "version": "0.8.0+commit.c7dfd78e.Emscripten.clang"
  },
  "schemaVersion": "3.3.4",
  "updatedAt": "2021-04-27T13:44:32.735Z",
  "networkType": "ethereum",
  "devdoc": {
    "kind": "dev",
    "methods": {
      "owner()": {
        "details": "Returns the address of the current owner."
      },
      "renounceOwnership()": {
        "details": "Leaves the contract without owner. It will not be possible to call `onlyOwner` functions anymore. Can only be called by the current owner. NOTE: Renouncing ownership will leave the contract without an owner, thereby removing any functionality that is only available to the owner."
      },
      "supportsInterface(bytes4)": {
        "details": "Returns true if this contract implements the interface defined by `interfaceId`. See the corresponding https://eips.ethereum.org/EIPS/eip-165#how-interfaces-are-identified[EIP section] to learn more about how these ids are created. This function call must use less than 30 000 gas."
      },
      "transferOwnership(address)": {
        "details": "Transfers ownership of the contract to a new account (`newOwner`). Can only be called by the current owner."
      }
    },
    "version": 1
  },
  "userdoc": {
    "kind": "user",
    "methods": {},
    "version": 1
  }
}